{
  "contractName": "parkingProvider",
  "abi": [
    {
      "inputs": [],
      "stateMutability": "nonpayable",
      "type": "constructor"
    },
    {
      "inputs": [
        {
          "internalType": "uint256",
          "name": "",
          "type": "uint256"
        }
      ],
      "name": "parkingLots",
      "outputs": [
        {
          "internalType": "uint256",
          "name": "id",
          "type": "uint256"
        },
        {
          "internalType": "string",
          "name": "emailId",
          "type": "string"
        },
        {
          "internalType": "string",
          "name": "name",
          "type": "string"
        },
        {
          "internalType": "uint256",
          "name": "fee",
          "type": "uint256"
        },
        {
          "internalType": "uint256",
          "name": "totalSlots",
          "type": "uint256"
        },
        {
          "internalType": "uint256",
          "name": "availableParkingSpots",
          "type": "uint256"
        },
        {
          "internalType": "int256",
          "name": "lattitude",
          "type": "int256"
        },
        {
          "internalType": "int256",
          "name": "longitude",
          "type": "int256"
        }
      ],
      "stateMutability": "view",
      "type": "function",
      "constant": true
    },
    {
      "inputs": [],
      "name": "totalParkingLots",
      "outputs": [
        {
          "internalType": "uint256",
          "name": "",
          "type": "uint256"
        }
      ],
      "stateMutability": "view",
      "type": "function",
      "constant": true
    },
    {
      "inputs": [
        {
          "internalType": "string",
          "name": "emailId",
          "type": "string"
        },
        {
          "internalType": "string",
          "name": "name",
          "type": "string"
        },
        {
          "internalType": "uint256",
          "name": "fee",
          "type": "uint256"
        },
        {
          "internalType": "uint256",
          "name": "totalSlots",
          "type": "uint256"
        },
        {
          "internalType": "int256",
          "name": "lattitude",
          "type": "int256"
        },
        {
          "internalType": "int256",
          "name": "longitude",
          "type": "int256"
        }
      ],
      "name": "createParkingLot",
      "outputs": [
        {
          "internalType": "int256",
          "name": "",
          "type": "int256"
        }
      ],
      "stateMutability": "nonpayable",
      "type": "function"
    },
    {
      "inputs": [
        {
          "internalType": "uint256",
          "name": "id",
          "type": "uint256"
        },
        {
          "internalType": "uint256",
          "name": "fee",
          "type": "uint256"
        }
      ],
      "name": "updateFee",
      "outputs": [
        {
          "internalType": "bool",
          "name": "success",
          "type": "bool"
        }
      ],
      "stateMutability": "nonpayable",
      "type": "function"
    },
    {
      "inputs": [
        {
          "internalType": "uint256",
          "name": "id",
          "type": "uint256"
        },
        {
          "internalType": "uint256",
          "name": "totalSlots",
          "type": "uint256"
        }
      ],
      "name": "updateTotalSlot",
      "outputs": [
        {
          "internalType": "bool",
          "name": "success",
          "type": "bool"
        }
      ],
      "stateMutability": "nonpayable",
      "type": "function"
    },
    {
      "inputs": [
        {
          "internalType": "uint256",
          "name": "id",
          "type": "uint256"
        }
      ],
      "name": "deleteParkingLot",
      "outputs": [
        {
          "internalType": "bool",
          "name": "success",
          "type": "bool"
        }
      ],
      "stateMutability": "nonpayable",
      "type": "function"
    },
    {
      "inputs": [
        {
          "internalType": "uint256",
          "name": "id",
          "type": "uint256"
        }
      ],
      "name": "getParkingLot",
      "outputs": [
        {
          "components": [
            {
              "internalType": "uint256",
              "name": "id",
              "type": "uint256"
            },
            {
              "internalType": "string",
              "name": "emailId",
              "type": "string"
            },
            {
              "internalType": "string",
              "name": "name",
              "type": "string"
            },
            {
              "internalType": "uint256",
              "name": "fee",
              "type": "uint256"
            },
            {
              "internalType": "uint256",
              "name": "totalSlots",
              "type": "uint256"
            },
            {
              "internalType": "uint256",
              "name": "availableParkingSpots",
              "type": "uint256"
            },
            {
              "internalType": "int256",
              "name": "lattitude",
              "type": "int256"
            },
            {
              "internalType": "int256",
              "name": "longitude",
              "type": "int256"
            }
          ],
          "internalType": "struct parkingProvider.parkingLot",
          "name": "",
          "type": "tuple"
        }
      ],
      "stateMutability": "view",
      "type": "function",
      "constant": true
    },
    {
      "inputs": [],
      "name": "getTotalParkingLots",
      "outputs": [
        {
          "internalType": "uint256",
          "name": "TotalParkingLots",
          "type": "uint256"
        }
      ],
      "stateMutability": "view",
      "type": "function",
      "constant": true
    }
  ],
  "bytecode": "0x608060405234801561001057600080fd5b506000600181905550611472806100286000396000f3fe608060405234801561001057600080fd5b50600436106100885760003560e01c8063b5564f2b1161005b578063b5564f2b1461014d578063d992fcb31461016b578063df5d16de1461019b578063fd3d1402146101d257610088565b80632740c1971461008d578063481ab867146100bd5780634e2a1051146100ed5780639610a5dd1461011d575b600080fd5b6100a760048036038101906100a291906109a5565b6101f0565b6040516100b49190610a00565b60405180910390f35b6100d760048036038101906100d291906109a5565b610239565b6040516100e49190610a00565b60405180910390f35b61010760048036038101906101029190610b97565b610282565b6040516101149190610c6b565b60405180910390f35b61013760048036038101906101329190610c86565b610432565b6040516101449190610a00565b60405180910390f35b6101556105a4565b6040516101629190610cc2565b60405180910390f35b61018560048036038101906101809190610c86565b6105ae565b6040516101929190610e31565b60405180910390f35b6101b560048036038101906101b09190610c86565b61074b565b6040516101c9989796959493929190610e9d565b60405180910390f35b6101da6108b3565b6040516101e79190610cc2565b60405180910390f35b600060015483106102045760009050610233565b816000848154811061021957610218610f29565b5b906000526020600020906008020160030181905550600190505b92915050565b6000600154831061024d576000905061027c565b816000848154811061026257610261610f29565b5b906000526020600020906008020160040181905550600190505b92915050565b600080600090505b60015481101561032d5783600082815481106102a9576102a8610f29565b5b9060005260206000209060080201600601541480156102ec575082600082815481106102d8576102d7610f29565b5b906000526020600020906008020160070154145b1561031a577fffffffffffffffffffffffffffffffffffffffffffffffffffffffffffffffff915050610428565b808061032590610f87565b91505061028a565b5060006040518061010001604052806001805461034a9190610fcf565b81526020018981526020018881526020018781526020018681526020018681526020018581526020018481525090806001815401808255809150506001900390600052602060002090600802016000909190919091506000820151816000015560208201518160010190816103bf919061120f565b5060408201518160020190816103d5919061120f565b50606082015181600301556080820151816004015560a0820151816005015560c0820151816006015560e0820151816007015550506001600081548092919061041d90610f87565b919050555060015490505b9695505050505050565b60006001548210610446576000905061059f565b60006001805461045691906112e1565b8154811061046757610466610f29565b5b90600052602060002090600802016000838154811061048957610488610f29565b5b906000526020600020906008020160008201548160000155600182018160010190816104b5919061132b565b50600282018160020190816104ca919061132b565b50600382015481600301556004820154816004015560058201548160050155600682015481600601556007820154816007015590505060006001805461051091906112e1565b8154811061052157610520610f29565b5b906000526020600020906008020160008082016000905560018201600061054891906108b9565b60028201600061055891906108b9565b6003820160009055600482016000905560058201600090556006820160009055600782016000905550506001600081548092919061059590611413565b9190505550600190505b919050565b6000600154905090565b6105b66108f9565b600082815481106105ca576105c9610f29565b5b906000526020600020906008020160405180610100016040529081600082015481526020016001820180546105fe90611032565b80601f016020809104026020016040519081016040528092919081815260200182805461062a90611032565b80156106775780601f1061064c57610100808354040283529160200191610677565b820191906000526020600020905b81548152906001019060200180831161065a57829003601f168201915b5050505050815260200160028201805461069090611032565b80601f01602080910402602001604051908101604052809291908181526020018280546106bc90611032565b80156107095780601f106106de57610100808354040283529160200191610709565b820191906000526020600020905b8154815290600101906020018083116106ec57829003601f168201915b50505050508152602001600382015481526020016004820154815260200160058201548152602001600682015481526020016007820154815250509050919050565b6000818154811061075b57600080fd5b906000526020600020906008020160009150905080600001549080600101805461078490611032565b80601f01602080910402602001604051908101604052809291908181526020018280546107b090611032565b80156107fd5780601f106107d2576101008083540402835291602001916107fd565b820191906000526020600020905b8154815290600101906020018083116107e057829003601f168201915b50505050509080600201805461081290611032565b80601f016020809104026020016040519081016040528092919081815260200182805461083e90611032565b801561088b5780601f106108605761010080835404028352916020019161088b565b820191906000526020600020905b81548152906001019060200180831161086e57829003601f168201915b5050505050908060030154908060040154908060050154908060060154908060070154905088565b60015481565b5080546108c590611032565b6000825580601f106108d757506108f6565b601f0160209004906000526020600020908101906108f5919061093e565b5b50565b60405180610100016040528060008152602001606081526020016060815260200160008152602001600081526020016000815260200160008152602001600081525090565b5b8082111561095757600081600090555060010161093f565b5090565b6000604051905090565b600080fd5b600080fd5b6000819050919050565b6109828161096f565b811461098d57600080fd5b50565b60008135905061099f81610979565b92915050565b600080604083850312156109bc576109bb610965565b5b60006109ca85828601610990565b92505060206109db85828601610990565b9150509250929050565b60008115159050919050565b6109fa816109e5565b82525050565b6000602082019050610a1560008301846109f1565b92915050565b600080fd5b600080fd5b6000601f19601f8301169050919050565b7f4e487b7100000000000000000000000000000000000000000000000000000000600052604160045260246000fd5b610a6e82610a25565b810181811067ffffffffffffffff82111715610a8d57610a8c610a36565b5b80604052505050565b6000610aa061095b565b9050610aac8282610a65565b919050565b600067ffffffffffffffff821115610acc57610acb610a36565b5b610ad582610a25565b9050602081019050919050565b82818337600083830152505050565b6000610b04610aff84610ab1565b610a96565b905082815260208101848484011115610b2057610b1f610a20565b5b610b2b848285610ae2565b509392505050565b600082601f830112610b4857610b47610a1b565b5b8135610b58848260208601610af1565b91505092915050565b6000819050919050565b610b7481610b61565b8114610b7f57600080fd5b50565b600081359050610b9181610b6b565b92915050565b60008060008060008060c08789031215610bb457610bb3610965565b5b600087013567ffffffffffffffff811115610bd257610bd161096a565b5b610bde89828a01610b33565b965050602087013567ffffffffffffffff811115610bff57610bfe61096a565b5b610c0b89828a01610b33565b9550506040610c1c89828a01610990565b9450506060610c2d89828a01610990565b9350506080610c3e89828a01610b82565b92505060a0610c4f89828a01610b82565b9150509295509295509295565b610c6581610b61565b82525050565b6000602082019050610c806000830184610c5c565b92915050565b600060208284031215610c9c57610c9b610965565b5b6000610caa84828501610990565b91505092915050565b610cbc8161096f565b82525050565b6000602082019050610cd76000830184610cb3565b92915050565b610ce68161096f565b82525050565b600081519050919050565b600082825260208201905092915050565b60005b83811015610d26578082015181840152602081019050610d0b565b60008484015250505050565b6000610d3d82610cec565b610d478185610cf7565b9350610d57818560208601610d08565b610d6081610a25565b840191505092915050565b610d7481610b61565b82525050565b600061010083016000830151610d936000860182610cdd565b5060208301518482036020860152610dab8282610d32565b91505060408301518482036040860152610dc58282610d32565b9150506060830151610dda6060860182610cdd565b506080830151610ded6080860182610cdd565b5060a0830151610e0060a0860182610cdd565b5060c0830151610e1360c0860182610d6b565b5060e0830151610e2660e0860182610d6b565b508091505092915050565b60006020820190508181036000830152610e4b8184610d7a565b905092915050565b600082825260208201905092915050565b6000610e6f82610cec565b610e798185610e53565b9350610e89818560208601610d08565b610e9281610a25565b840191505092915050565b600061010082019050610eb3600083018b610cb3565b8181036020830152610ec5818a610e64565b90508181036040830152610ed98189610e64565b9050610ee86060830188610cb3565b610ef56080830187610cb3565b610f0260a0830186610cb3565b610f0f60c0830185610c5c565b610f1c60e0830184610c5c565b9998505050505050505050565b7f4e487b7100000000000000000000000000000000000000000000000000000000600052603260045260246000fd5b7f4e487b7100000000000000000000000000000000000000000000000000000000600052601160045260246000fd5b6000610f928261096f565b91507fffffffffffffffffffffffffffffffffffffffffffffffffffffffffffffffff8203610fc457610fc3610f58565b5b600182019050919050565b6000610fda8261096f565b9150610fe58361096f565b9250828201905080821115610ffd57610ffc610f58565b5b92915050565b7f4e487b7100000000000000000000000000000000000000000000000000000000600052602260045260246000fd5b6000600282049050600182168061104a57607f821691505b60208210810361105d5761105c611003565b5b50919050565b60008190508160005260206000209050919050565b60006020601f8301049050919050565b600082821b905092915050565b6000600883026110c57fffffffffffffffffffffffffffffffffffffffffffffffffffffffffffffffff82611088565b6110cf8683611088565b95508019841693508086168417925050509392505050565b6000819050919050565b600061110c6111076111028461096f565b6110e7565b61096f565b9050919050565b6000819050919050565b611126836110f1565b61113a61113282611113565b848454611095565b825550505050565b600090565b61114f611142565b61115a81848461111d565b505050565b5b8181101561117e57611173600082611147565b600181019050611160565b5050565b601f8211156111c35761119481611063565b61119d84611078565b810160208510156111ac578190505b6111c06111b885611078565b83018261115f565b50505b505050565b600082821c905092915050565b60006111e6600019846008026111c8565b1980831691505092915050565b60006111ff83836111d5565b9150826002028217905092915050565b61121882610cec565b67ffffffffffffffff81111561123157611230610a36565b5b61123b8254611032565b611246828285611182565b600060209050601f8311600181146112795760008415611267578287015190505b61127185826111f3565b8655506112d9565b601f19841661128786611063565b60005b828110156112af5784890151825560018201915060208501945060208101905061128a565b868310156112cc57848901516112c8601f8916826111d5565b8355505b6001600288020188555050505b505050505050565b60006112ec8261096f565b91506112f78361096f565b925082820390508181111561130f5761130e610f58565b5b92915050565b60008154905061132481611032565b9050919050565b818103611339575050611411565b61134282611315565b67ffffffffffffffff81111561135b5761135a610a36565b5b6113658254611032565b611370828285611182565b6000601f83116001811461139f576000841561138d578287015490505b61139785826111f3565b86555061140a565b601f1984166113ad87611063565b96506113b886611063565b60005b828110156113e0578489015482556001820191506001850194506020810190506113bb565b868310156113fd57848901546113f9601f8916826111d5565b8355505b6001600288020188555050505b5050505050505b565b600061141e8261096f565b91506000820361143157611430610f58565b5b60018203905091905056fea2646970667358221220b9d69ce099b08bca94083504fcd821d2a0f6dba5a0a0e3dc87d5a2043f51422c64736f6c63430008110033",
  "immutableReferences": {},
  "source": "// SPDX-License-Identifier: UNLICENSED\r\n\r\npragma solidity ^0.8.0;\r\n\r\n// import \"hardhat/console.sol\";\r\n\r\ncontract parkingProvider {\r\n    \r\n   struct parkingLot{\r\n      uint id;\r\n    //   string parkingId; // auto - generated\r\n      string emailId;\r\n      string name;\r\n      uint fee;\r\n      uint totalSlots;\r\n      uint availableParkingSpots; // initially 0\r\n      // location of parking lot (lattitude and longitude)\r\n      int lattitude;\r\n      int longitude;\r\n   }\r\n  \r\n   parkingLot[] public parkingLots; \r\n\r\n   uint256 public totalParkingLots;\r\n  \r\n  \r\n   constructor() {\r\n      totalParkingLots = 0;\r\n   }\r\n\r\n   // creating a new paking lot if it is not already created\r\n   function createParkingLot( string memory emailId , string memory name, uint fee, uint totalSlots, int lattitude, int longitude) public returns (int){\r\n      // checking if the same parking lot is already registered than not creating new parking lot\r\n      for(uint i=0;i<totalParkingLots;i++){\r\n      if(parkingLots[i].lattitude==lattitude && parkingLots[i].longitude==longitude) return -1;\r\n      }\r\n\r\n      parkingLots.push(parkingLot(totalParkingLots+1,emailId,name,fee,totalSlots,totalSlots,lattitude,longitude));\r\n      totalParkingLots++;\r\n      \r\n      return int(totalParkingLots);\r\n   }\r\n\r\n   // updating cost per hour\r\n   function updateFee(uint id, uint fee) public returns (bool success){\r\n      // if id is not valid\r\n      if(id>=totalParkingLots)    return false;\r\n      parkingLots[id].fee=fee;\r\n      return true;\r\n   }\r\n\r\n   // updating total slots\r\n   function updateTotalSlot(uint id, uint totalSlots) public returns (bool success){\r\n      // if id is not valid\r\n      if(id>=totalParkingLots)    return false;\r\n      parkingLots[id].totalSlots=totalSlots;\r\n      return true;\r\n   }\r\n\r\n   \r\n   // delete a parking lot\r\n   function deleteParkingLot(uint id) public returns(bool success){\r\n\r\n      // if id is not valid\r\n      if(id>=totalParkingLots)    return false;\r\n\r\n      parkingLots[id]=parkingLots[totalParkingLots-1];\r\n      delete parkingLots[totalParkingLots-1];\r\n      totalParkingLots--;\r\n      return true;\r\n   }\r\n   \r\n     \r\n   function getParkingLot(uint id) public view returns(parkingLot memory){\r\n      return parkingLots[id];\r\n   }     \r\n   \r\n   \r\n   function getTotalParkingLots() public view returns (uint256 TotalParkingLots){\r\n      return totalParkingLots;\r\n   }\r\n}",
  "sourcePath": "C:\\Users\\vinay\\OneDrive\\Desktop\\Final Year Project\\web 3 Blockchain\\contracts\\parkingProvider.sol",
  "compiler": {
    "name": "solc",
    "version": "0.8.17+commit.8df45f5f.Emscripten.clang"
  },
  "schemaVersion": "3.4.11",
  "updatedAt": "2023-05-25T17:17:00.280Z",
  "networkType": "ethereum",
  "devdoc": {
    "kind": "dev",
    "methods": {},
    "version": 1
  },
  "userdoc": {
    "kind": "user",
    "methods": {},
    "version": 1
  }
}